:0C0000000C9415030C94D0030C94000029
:10000C000C9400000C9400000C9400000C94000064
:10001C000C9400000C9400000C9400000C94000054
:10002C000C9400000C9400000C9400000C94000044
:10003C000C9400000C946E030C9417040C9477032E
:10004C000C9400000C94AA030C94F0030C94000084
:10005C000C9400000C9400000C94000000010203AE
:10006C000405060708090C0D1115191A2038444708
:10007C004A4E525657585C60616265696D71757B6A
:10008C0086878889260102030405060708090909E1
:10009C00000000000000000000000000000A0B0B34
:1000AC000B0B00000000000000000000000000002E
:1000BC000000000000000C0C0C0C0D0D0D0D0000D0
:1000CC000000000000000000000000000000000C18
:1000DC000C0C0C0A0D0D0D0D0000000000000000B2
:1000EC0000000000000000000E00000000000000F6
:1000FC0000000000000000000000000000000000F4
:10010C00002601020304050607080909090000007E
:10011C000000000000000000000010101010101073
:10012C0010101010101010101010101010101010C3
:10013C001010000F0F0F0F0F0F11111111111111C2
:10014C001111111111121212000000001313130AD5
:10015C001414141415151515161616160000000097
:10016C00000000000017180A191919191A1A1A1A7E
:10017C00272727271B1C00000000000000001D1D66
:10018C001D00000000000000000000000000000046
:10019C0000000000000000101010101010101010C3
:1001AC001010101010101010101010101010100053
:1001BC000F0F0F0F0F0F111111111111111111112F
:1001CC001111121212000000001D1D1D0000000074
:1001DC000000000000000000000000000000000013
:1001EC0000000A191919191A1A1A1A00000000002D
:1001FC0000000000000000000000000000000000F3
:10020C0000000000000000000000000000000000E2
:10021C0000000000000000000000000000000000D2
:10022C0000000000000000000000000000000000C2
:10023C0000000000000000000000000000000000B2
:10024C000000000000001E00000000000000000084
:10025C000000000000000000000000000000000092
:10026C000000000000000000000000000000000082
:10027C000000000000000000000000000000000072
:10028C000000000000000000000000000000000062
:10029C000000000000000000000000000000000052
:1002AC00000000000000000000000A000000000038
:1002BC000000000000000000000000000000000032
:1002CC000000001F1F1F00000000000000000000C5
:1002DC0000000000000000000000000020202000B2
:1002EC000000000000000000000000000000000002
:1002FC0000000000002100000000000000000000D1
:10030C00000000000000000000000000000022229D
:10031C002222222227272727272727272323232385
:10032C0023232323232300131313000000000000B6
:10033C0000000000000000000000000000000000B1
:10034C00030000000000000000000000000000009E
:10035C00000000000000000000240000000000006D
:10036C000000000000000000000000000000000081
:10037C00000025000000000000000000000000004C
:10038C00000000000000000000000000000102035B
:10039C00060B0C0D0E0F10111213232425262829E1
:1003AC002A2B2C2D2E2F30313B6C6D0000000001C0
:1003BC000000000000000101010101010101010127
:1003CC000101010101000101010100010101000015
:1003DC000000000000000000000000000000000011
:1003EC00000000000000000101000000C0C1C1813C
:1003FC000140C30103C00280C241C60106C0078090
:10040C00C7410500C5C1C4810440CC010CC00D809E
:10041C00CD410F00CFC1CE810E400A00CAC1CB81A5
:10042C000B40C90109C00880C841D80118C0198007
:10043C00D9411B00DBC1DA811A401E00DEC1DF810D
:10044C001F40DD011DC01C80DC411400D4C1D581CE
:10045C001540D70117C01680D641D20112C01380A7
:10046C00D3411100D1C1D0811040F00130C0318096
:10047C00F1413300F3C1F28132403600F6C1F7810D
:10048C003740F50135C03480F4413C00FCC1FD819E
:10049C003D40FF013FC03E80FE41FA013AC03B8027
:1004AC00FB413900F9C1F88138402800E8C1E981E5
:1004BC002940EB012BC02A80EA41EE012EC02F808F
:1004CC00EF412D00EDC1EC812C40E40124C02580CE
:1004DC00E5412700E7C1E68126402200E2C1E38125
:1004EC002340E10121C02080E041A00160C0618077
:1004FC00A1416300A3C1A28162406600A6C1A7818D
:10050C006740A50165C06480A4416C00ACC1AD819D
:10051C006D40AF016FC06E80AE41AA016AC06B80A6
:10052C00AB416900A9C1A88168407800B8C1B98104
:10053C007940BB017BC07A80BA41BE017EC07F800E
:10054C00BF417D00BDC1BC817C40B40174C07580CD
:10055C00B5417700B7C1B68176407200B2C1B381A4
:10056C007340B10171C07080B041500090C1918155
:10057C005140930153C052809241960156C057800E
:10058C009741550095C1948154409C015CC05D809D
:10059C009D415F009FC19E815E405A009AC19B8124
:1005AC005B40990159C058809841880148C04980E6
:1005BC0089414B008BC18A814A404E008EC18F818C
:1005CC004F408D014DC04C808C41440084C18581CD
:1005DC004540870147C046808641820142C0438026
:1005EC008341410081C1808140400000803F010077
:1005FC00020001000500010001002D4E414E004992
:10060C004E46000001007D02FE0501007F0200063F
:10061C000200030002060100DE0204060000F8944A
:10062C00EE27EFBBF1E0F5BFE5BFF8E1A895A4B765
:10063C00A77FA4BFF0936000E09360008DE0A2E080
:10064C00BB27ED938A95E9F780E094E0A0E0B1E058
:10065C00ED930197E9F7E0E1F6E08591959100972C
:10066C0061F0A591B59105901590BF01F001059031
:10067C000D920197E1F7FB01F0CFE0E0EEBBEFEF5D
:10068C00EDBFE4E0EEBFC0E0D2E00C947F0D6591CD
:10069C007491E62FF72F22960895EE2DF070DF015E
:1006AC00E881F0E0AE27BF27EFEFF0E0EA23FB2371
:1006BC00A6EFB3E0EE0FFF1FEA0FFB1F0E946810BE
:1006CC00FD2DE0E0EA27FB27DE2EEF2E2196089584
:1006DC00EA93E1E0EDBBECBBE0E0E0936900E9916B
:1006EC001895AA93EA93FA93EFB7EA931A930A939D
:1006FC00F8941091C0000091C600E12FEC71D9F470
:10070C00E0917202F0E0E85FFD4F0083A09172026D
:10071C00AF5FA0937202A03419F4E0E0E093720290
:10072C00A0917402AF5FA0937402A03421F4E0E0B6
:10073C00E0937402F09A789409911991E991EFBFC2
:10074C00F991E991A9911895AA93EA93FA93EFB7C5
:10075C00EA93F894E091DD02E030A9F0E150E093E7
:10076C00DD02E091DC02F0E0E456FD4FE081E09325
:10077C00C600A091DC02AF5FA093DC02A03419F498
:10078C00E0E0E093DC027894E991EFBFF991E99114
:10079C00A9911895AA93EA93EFB7EA93A0916900EF
:1007AC00A33061F45B9AE091C100E07CE061E093DE
:1007BC00C100E0E0E0936900F49807C0E3E0E09347
:1007CC006900E0ECE093C100F49AE991EFBFE99184
:1007DC00A99118956A937A938A93EA93FA93EFB74F
:1007EC00EA9382E08A95F1F7E0917800F091790034
:1007FC0066277727E0937502F09376026093770271
:10080C0070937802F19AE0E2E0937C00EFE4E093DD
:10081C007A00E991EFBFF991E99189917991699108
:10082C001895EA93EFB7EA93E0917D02E03031F44A
:10083C00EFEFEEBDE1E0E0937D0201C02A98EFEC12
:10084C00E0937A00E991EFBFE991189582E08A95DF
:10085C00F1F72A98A881A23070F4E881EEBDE0305F
:10086C0019F4E0E0FCE302C0E0E0F0E6E983FA838F
:10087C00EDB5E038E8F3A881A33019F4E0E0E983A2
:10088C00EA83A881A23079F4A0917902B0917A021E
:10089C0080917B0290917C02E0E10E942710EEBDDA
:1008AC00EDB5E038E8F3EA81F070EEBD2A98EDB5CD
:1008BC00E038E8F3E981EEBDEDB5E038E8F32396D6
:1008CC0008951A930A93F3D28F01F59B1CC0002E46
:1008DC00012A69F4E0E0E0937E02E0937202F09862
:1008EC00E0918202EA936AD10E2B1F2B08C05B9A0F
:1008FC00F098E0E0E0937E02E0937202F4981A9391
:10090C000A9312D00DC0F098E0E0E0937E02E093E1
:10091C007202E091C100E07CE061E093C1005B9A5F
:10092C0061D40991199108950E94BA1010E000E069
:10093C0030E0A091C000A032E0F3A3E0B0E00E9450
:10094C008510E0937F02E9E1F0E0FA93EA930E94CC
:10095C00710E5B98E091C100E07CE860E093C1000F
:10096C00EFE0F0E0FA93EA930E94710E10E0E09150
:10097C007F021E1768F4E12FF0E0E456FD4FAFEF55
:10098C00A083E091DD02EF5FE093DD021F5FEFCF0C
:10099C00F69B06C0E12FF0E0E456FD4FA1E005C048
:1009AC00E12FF0E0E456FD4FA6E0A083E12FF0E04C
:1009BC00E456FD4FE0813E271F5FE12FF0E0BF01C1
:1009CC00E456FD4F0F01A0918002BB27E0917F02FE
:1009DC00F0E0AE1BBF0BFB01EA0FFB1FE85FFD4F06
:1009EC00E081D001EC93E12FF0E0E456FD4FE08183
:1009FC003E271F5FE12FF0E0BF01E456FD4F0F01D2
:100A0C00A0918002BB27E0917F02F0E0AE1BBF0BF0
:100A1C00FB01EA0FFB1FE85FFD4FE081D001EC9377
:100A2C00E12FF0E0E456FD4FE0813E271F5FEC81A3
:100A3C00FD81309711F00C946605A12FB0E0A456FF
:100A4C00BD4FE0918102EE5FEC93E12FF0E0E456B4
:100A5C00FD4FE0813E271F5FE12FF0E0E456FD4F94
:100A6C00A0916F02A083E12FF0E0E456FD4FE081EE
:100A7C003E271F5FE12FF0E0E456FD4FA0E0A0837E
:100A8C00E12FF0E0E456FD4FE0813E271F5F00E0D0
:100A9C00E09181020E1798F4A12FB0E0A456BD4F3F
:100AAC00E02FF0E0ED57FD4FE081EC93E12FF0E00B
:100ABC00E456FD4FE0813E271F5F0F5FE9CF5DC01D
:100ACC00A12FB0E0A456BD4FE0916D02EE5FEC9308
:100ADC00E12FF0E0E456FD4FE0813E271F5FA12F90
:100AEC00B0E0A456BD4FEC81FD810E943810EC9310
:100AFC00E12FF0E0E456FD4FE0813E271F5FE12F30
:100B0C00F0E0E456FD4FAC81A083E12FF0E0E45619
:100B1C00FD4FE0813E271F5F012F102FA0916D022A
:100B2C00BB27E02FF0E0EA0FFB1FA12FB0E0AE17C0
:100B3C00BF071CF5E12FF0E0E456FD4FBF01A0917B
:100B4C008002BB27E0917F02F0E0AE1BBF0BEE27CB
:100B5C00A10FBE1FE2E0F0E00E947610EA1BFB0B37
:100B6C00E85FFD4FE081DB01EC93E12FF0E0E45610
:100B7C00FD4FE0813E271F5FD1CFE12FF0E0E4561F
:100B8C00FD4F3083E1E0E093DC021093DD02E09155
:100B9C009C02E093C600E091DD02E030E1F7EFE06B
:100BAC00F0E0FA93EA930E94710E5B9AF498E0E0FD
:100BBC00E09374020E94C110269608952797E0E0F6
:100BCC00EC83ED83EE830E94B81010E000E030E07F
:100BDC0020E050E041E010E01F3160F4E12FF0E044
:100BEC00E856FC4FA491ED85EA1711F440E01A8702
:100BFC001F5FF2CF403011F00C94DF06E7EBF3E00F
:100C0C00DF01EA85F0E0EA0FFB1F5491E6EDF3E01B
:100C1C00DF01EA85F0E0EA0FFB1F24915030E9F088
:100C2C0000E0E0916D02F0E03196A02FB0E0AE173D
:100C3C00BF0764F4A02FB0E0AD57BD4FE02FF0E03C
:100C4C00E85BFD4FE081EC930F5FEBCFEA85E0931F
:100C5C006E02EA93B4D000E0ACC0EA85A9E1EA9F49
:100C6C00F001E057FF4FDF01E02FF0E0EA0FFB1F30
:100C7C0004900C8600E0083110F00C94DC06EA8538
:100C8C00A9E1EA9FF001E057FF4FDF01E02FF0E010
:100C9C00EA0FFB1FE491AC85EA1711F40C94BB0628
:100CAC00A02FBB27EB85F0E00E947610EA1BFB0B14
:100CBC003E2F301710F00C94B906AC85EBE00E9477
:100CCC0047100E2EEDE00E944C10E02909F1E32FA5
:100CDC00F0E0ED57FD4FCF01EC85F0E0E859FF4F08
:100CEC0064917727A32FBB27EB85F0E0AE0FBF1FD6
:100CFC00E02FF0E00E947610EA1BFB0BE60FF71FCB
:100D0C00E050F040DF010E948510DC01EC9329C01B
:100D1C00F894EC85F0E03B97A1E6B2E00E9433102A
:100D2C00AE0FBF1F0E945D10EE83FF83688779872B
:100D3C00E32FF0E0ED57FD4FBF01A32FBB27EB8551
:100D4C00F0E0AE0FBF1FE02FF0E00E947610EA1B20
:100D5C00FB0BDE011696AE0FBF1FEC91DB01EC9383
:100D6C0078943F5FA6CFE0E0EB87EA85A9E1EA9FA4
:100D7C00F001E057FF4FDF01E02FF0E0EA0FFB1F1F
:100D8C0004900C86EB85EF5FEB87EA85A9E1EA9F7F
:100D9C00F001E057FF4FDF01E02FF0E0EA0FFB1FFF
:100DAC00E491E03009F408E10F5F65CF30938102E4
:100DBC0030E0E42FF0E00E94BF102E9608950E94C0
:100DCC00B81010E000E030E020E050E0EE81A9E146
:100DDC00EA9FF001E057FF4F249100E0E0916D0293
:100DEC00F0E03196A02FB0E0AE17BF0714F00C94D2
:100DFC005907EE81A9E1EA9FF001E057FF4FDF01AF
:100E0C00E02FF0E0EA0FFB1FE491E21759F1A02F5D
:100E1C00BB27E52FF0E00E947610EA1BFB0B3E2F60
:100E2C003017F8F4E22FF0E0E859FF4F6491772780
:100E3C00A32FBB27EE27A50FBE1FE02FF0E00E94CB
:100E4C007610EA1BFB0BE60FF71FE050F040DF01BA
:100E5C00E32FF0E0ED57FD4FE0810E94A1103F5FC2
:100E6C00DFCF50E0EE81A9E1EA9FF001E057FF4FA0
:100E7C00DF01E02FF0E0EA0FFB1F24915F5FEE81B2
:100E8C00A9E1EA9FF001E057FF4FDF01E02FF0E00E
:100E9C00EA0FFB1FE491E03021F4E0916D02EF5F6B
:100EAC000E2F0F5F9BCF0E94BF102796089522979D
:100EBC00E0E0E883E9830E94B81010E000E030E045
:100ECC0020E050E0E0937E02F59AE02FF0E0E85F3E
:100EDC00FD4FA081AF3F41F4093020F0E0E9E093F1
:100EEC007E0279C10F5FF1CF00938002102FE02FAB
:100EFC00F0E0E85FFD4FA081A23019F0E2E0E09352
:100F0C007E02E12FF0E0E85FFD4FE081AE81BF8112
:100F1C00F0E0EA27FB27EE83FF831F5FE12FF0E071
:100F2C00E85FFD4FE081E07319F0E0E9E0937E02A9
:100F3C00E12FF0E0E85FFD4FE081EF700E2EA9E1AC
:100F4C00B0E00E948510E01511F4F59A01C0F598F7
:100F5C00E12FF0E0E85FFD4FE081AE81BF81F0E072
:100F6C00EA27FB27EE83FF831F5FE12FF0E0E85FAA
:100F7C00FD4FE081E0938202A0918202A33239F509
:100F8C0020E0243020F5E22FF0E0BF01E85AFF4FBB
:100F9C000F01E12FF0E03396E60FF71FE85FFD4FEE
:100FAC00E081D0010E94A110E22FF0E0BF01E45AD1
:100FBC00FF4F0F01E12FF0E03796E60FF71FE85FC8
:100FCC00FD4FE081D0010E94A1102F5FDACFA091DC
:100FDC008202A63219F4E0E0EA9337D4A09182029F
:100FEC00AA3261F5E12FF0E0BF01E65FFD4FA08171
:100FFC00E5E40E9442100E2EFB01E55FFD4FA0813F
:10100C00E2E50E9442100E22FB01E45FFD4FA0813D
:10101C00E1E40E9442100E22FB01E35FFD4FA08130
:10102C00E3E50E9442100E22FB01E25FFD4FA0811E
:10103C00E5E40E944210E02109F08AD4A0918202DA
:10104C00AB32D1F4F894EA2DA4E1B1E0F0E0EE0F6C
:10105C00FF1FAE0FBF1FE0917502F09176020E9448
:10106C0099105090750260907602A5E2B1E0E1E033
:10107C000E94A110789476D3A0918202AD32B1F483
:10108C0020E0243098F4E22FF0E0BF01E759FF4F45
:10109C000F01E12FF0E03296E60FF71FE85FFD4FEE
:1010AC00E081D0010E94A1102F5FEBCFA0918202B2
:1010BC00AE32B1F420E0243098F4E22FF0E0BF011E
:1010CC00E359FF4F0F01E12FF0E03296E60FF71FC7
:1010DC00E85FFD4FE081D0010E94A1102F5FEBCFA4
:1010EC00A0918202AF36D1F4F894EA2DACE1B1E0D4
:1010FC00F0E0EE0FFF1FAE0FBF1FE0917502F091F5
:10110C0076020E9499107090750280907602A5E28A
:10111C00B1E0E1E00E94A110789424D3E12FF0E03B
:10112C00E85FFD4FE081AE81BF81F0E0EA27FB274D
:10113C00EE83FF831F5FE12FF0E0E85FFD4FE0815E
:10114C00E0936D02E12FF0E0E85FFD4FE081AE81AE
:10115C00BF81F0E0EA27FB27EE83FF831F5F512F4F
:10116C00052F152FA52FBB27E0916D02F0E0EA0F9C
:10117C00FB1FA12FB0E0AE17BF07D4F40F5FA32F56
:10118C00B0E0A85BBD4FE12FF0E0E85FFD4FE081E0
:10119C00EC93E12FF0E0E85FFD4FE081AE81BF8181
:1011AC00F0E0EA27FB27EE83FF833F5F1F5FDACF78
:1011BC00101719F0E0E9E0937E02E12FF0E0E85F10
:1011CC00FD4FA081EE81FF81B0E0EA17FB0719F01B
:1011DC00E8E8E0937E02E0917E02F0E00E94BF100E
:1011EC00289608951A9310E010E0103468F4E12F5B
:1011FC00F0E0E85FFD4FA0E0A083E12FF0E0E456C3
:10120C00FD4FA0831F5FF1CF10E0193168F4E12F7F
:10121C00F0E0E85BFD4FA0E0A083E12FF0E0ED579C
:10122C00FD4FA0831F5FF1CF19910895A895E8E3B6
:10123C00E0936000EEE0E0936000E0E0E5B9ECE202
:10124C00E4B9E0E0E8B9E7B9539A5B9A569A579A31
:10125C005E985F98E0936E00E4BDE5BDE6BDE0935B
:10126C00C000E0ECE093C100E6E0E093C200E0E0F7
:10127C00E093C500E7E1E093C400E0E0E093800078
:10128C00E0938100E0938500E0938400E093870075
:10129C00E0938600E0938900E0938800E0938B0054
:1012AC00E0938A00E093B600E093B000E093B100C5
:1012BC00E093B200E093B300E093B400E3E0E0937A
:1012CC006900E1E0EDBBECBBE0E0E0936800E0938B
:1012DC006E00E0936F00E0937000E0E8E0BFE0E0A8
:1012EC00E0937B00EFE3E0937E00E0E2E0937C0090
:1012FC00EFECE0937A00E0917B00E03029F4E0E041
:10130C00E03011F4E0E001C0E1E0E0937B00E3E5C4
:10131C00ECBDE0E0EDBD08956C97E0E0EC83ED836F
:10132C00EE83EF831A930A9300E010E01430E0F49C
:10133C00E12FF0E0BF01DE011296EA0FFB1F0F0157
:10134C00FB01E85AFF4FDF010E948510D001EC939E
:10135C00133041F4EA81FB816C817D81EE87FF873C
:10136C00688B798B1F5FE2CF10E01430E0F4E12F33
:10137C00F0E0BF01DE011296EA0FFB1F0F01FB012B
:10138C00E45AFF4FDF010E948510D001EC9313301B
:10139C0041F4EA81FB816C817D81EA8BFB8B6C8B48
:1013AC007D8B1F5FE2CF10E01430E0F4E12FF0E012
:1013BC00BF01DE011296EA0FFB1F0F01FB01E7597B
:1013CC00FF4FDF010E948510D001EC93133041F4E4
:1013DC00EA81FB816C817D81EA8FFB8F6C8F7D8F25
:1013EC001F5FE2CF10E01430E0F4E12FF0E0BF011A
:1013FC00DE011296EA0FFB1F0F01FB01E359FF4FB1
:10140C00DF010E948510D001EC93133041F4EA8186
:10141C00FB816C817D81EE8BFF8B688F798F1F5FD9
:10142C00E2CFA0917502B0917602809177029091F3
:10143C0078020E94B210ECF5E0917502F091760200
:10144C0060917702709178020E94E20EDF01CB016D
:10145C00E0910002F091010260910202709103028E
:10146C000E94B50FA0910402B09105028091060272
:10147C00909107020E94150F0E94AB0EEE83FF8322
:10148C0068877987AE81BF8188859985A13CEFEF0C
:10149C00BE07E0E08E07E0E09E0744F0E0ECFFEFD3
:1014AC0060E070E0EE83FF8368877987A985AA23C3
:1014BC002AF4E0E0EE83EF83E887E987AA8DBB8D01
:1014CC008C8D9D8DEE89FF89688D798D0E94150F0D
:1014DC00DF01CB01E0E0F0E060E871E40E94B50FC1
:1014EC00AE81BF81888599850E946D100E94670F1F
:1014FC000E94AB0E7F936F93FF93EF93AA8DBB8DDE
:10150C008C8D9D8DE8E0F0E260E879E30E94B50FE8
:10151C000E94AB0E66277727AF91BF918F919F9159
:10152C000E943D100E941A10E0937902F0937A0207
:10153C0060937B0270937C02EA8DFB8D6C8D7D8DAC
:10154C00A0917902B0917A0280917B0290917C02F9
:10155C000E946D100E94FA0F19F010F00C94C00A42
:10156C00EA8DFB8D6C8D7D8DA9E7B2E00E94AB0EF0
:10157C000E946310E0917902F0917A0260917B02F3
:10158C0070917C020E94E20EA8E0B0E280E899E340
:10159C000E94670FE0936502F09366026093670206
:1015AC0070936802E0916502F091660260916702A7
:1015BC0070916802AA8DBB8D8C8D9D8D0E94150F2C
:1015CC00A0E0B0E088EC92E40E94670F7F936F93E9
:1015DC00FF93EF93AA8DBB8D8C8D9D8DEE89FF892A
:1015EC00688D798D0E94150FAF91BF918F919F914E
:1015FC000E94B50FE0936902F0936A0260936B024C
:10160C0070936C02AA89BB898C899D89EE85FF85B4
:10161C00688979890E94150FEA87FB876C877D871B
:10162C00AA85BB858C859D85A030E0E0BE07E0E2F5
:10163C008E07E1E49E0741F4ACE0B0E0EAE00E94E2
:10164C00A1105F985E98AA24AA85BB858C859D8580
:10165C00A030E0E0BE07E0EA8E07E1E49E0749F423
:10166C00ACE0B0E0E4E10E94A1105F985E9AE1E08A
:10167C00AE2EAA85BB858C859D85A030E0E0BE078B
:10168C00E0EF8E07E1E49E0749F4ACE0B0E0EEE158
:10169C000E94A1105F9A5E98E2E0AE2EAA85BB85EF
:1016AC008C859D85A030E0E0BE07E8E48E07E2E47F
:1016BC009E0749F4ACE0B0E0E2E30E94A1105F9A0F
:1016CC005E9AE3E0AE2EA4E2B1E00E948510AE1665
:1016DC0049F1EA2DA6E3B1E0F0E00E943310AE0F21
:1016EC00BF1F0E947D10E0930402F09305026093EB
:1016FC00060270930702EA2DA6E2B1E0F0E00E9428
:10170C003310AE0FBF1F0E947D10E0930002F093C8
:10171C0001026093020270930302EA2DA4E2B1E08D
:10172C000E94A110AA85BB858C859D85E0E0F0E028
:10173C0068EC72E40E94B50FA0916902B0916A0244
:10174C0080916B0290916C020E94670FE093610292
:10175C00F0936202609363027093640219810881B2
:10176C006E9608950E94BA1007EF12EF29EC3CE038
:10177C00E72DF82DE519F609BE2ECF2EEB2DFC2DFD
:10178C00662777270E94E20EDF01CB01E0E0F7EF3E
:10179C0062E777E40E94B50FE0930002F093010238
:1017AC006093020270930302EA2DA6E2B1E0F0E02E
:1017BC000E943310AE0FBF1FE0910002F0910102A6
:1017CC0060910202709103020E949110E52DF62D9A
:1017DC00662777270E94E20E7F936F93FF93EF9318
:1017EC00F901A0910002B091010280910202909146
:1017FC000302662777270E94E20E0E94670FAF91C3
:10180C00BF918F919F910E9470100E94150FE093D1
:10181C000402F09305026093060270930702EA2D0E
:10182C00A6E3B1E0F0E00E943310AE0FBF1FE091D1
:10183C000402F091050260910602709107020E9469
:10184C0091100E94C110249608951A930A9300E0F7
:10185C0010E000E010E00B38E0E01E07C4F4E2E614
:10186C00F0E0E017F10719F404E610E00DC0F80100
:10187C00E050F0400F01AAE8B0E0A00FB11F0E94A9
:10188C008510D0010E94A1100F5F1F4FE4CF00E024
:10189C0010E00430E0E01E079CF5F801A6E3B1E08F
:1018AC000E943310AE0FBF1FE0E0F0E060E070E08C
:1018BC000E949110F801A6E2B1E00E943310AE0F25
:1018CC00BF1FE0E0F0E060E87FE30E949110F801B8
:1018DC00A4E1B1E0EE0FFF1FAE0FBF1FE9ECFCE07F
:1018EC000E949910F801ACE1B1E0EE0FFF1FAE0FB2
:1018FC00BF1FE0ECFFEF0E9499100F5F1F4FC9CF85
:10190C00E0E0E0930402E0930502E0930602E0932A
:10191C000702E0E0F0E060E87FE3E0930002F09380
:10192C0001026093020270930302E9ECFCE05E2E6C
:10193C006F2EE0ECFFEF7E2E8F2EA4E2B1E0E1E003
:10194C000E94A110A4E2B1E00E948510AE2ECDC081
:10195C00E1E0E5BFE2E0E5BFA0E0B0E0EEEE0E9422
:10196C00A110A2E0B0E0E3EA0E94A110E0E0FCE1EB
:10197C00E0937002F0937102E0917002F0917102A9
:10198C00099508951A930A9300E010E0AA81A130FA
:10199C0011F00C941F0DA4E2B1E00E948510A4E19B
:1019AC00B1E0F0E0EE0FFF1FAE0FBF1F0E948110E1
:1019BC005E2E6F2EA4E2B1E00E948510ACE1B1E086
:1019CC00F0E0EE0FFF1FAE0FBF1F0E9481107E2EA6
:1019DC008F2EA4E2B1E00E948510A6E3B1E0F0E006
:1019EC000E943310AE0FBF1F0E947D10E0930402C3
:1019FC00F09305026093060270930702A4E2B1E033
:101A0C000E948510A6E2B1E0F0E00E943310AE0F08
:101A1C00BF1F0E947D10E0930002F09301026093BF
:101A2C00020270930302A4E2B1E00E948510AE2E74
:101A3C005CC0A4E2B1E0E1E00E94A110AE2E00E097
:101A4C0010E00430E0E01E079CF5F801A6E3B1E0DD
:101A5C000E943310AE0FBF1FE0E0F0E060E070E0DA
:101A6C000E949110F801A6E2B1E00E943310AE0F73
:101A7C00BF1FE0E0F0E060E87FE30E949110F80106
:101A8C00A4E1B1E0EE0FFF1FAE0FBF1FE9ECFCE0CD
:101A9C000E949910F801ACE1B1E0EE0FFF1FAE0F00
:101AAC00BF1FE0ECFFEF0E9499100F5F1F4FC9CFD3
:101ABC00E0E0E0930402E0930502E0930602E09379
:101ACC000702E0E0F0E060E87FE3E0930002F093CF
:101ADC0001026093020270930302E9ECFCE05E2EBB
:101AEC006F2EE0ECFFEF7E2E8F2E1981088123964E
:101AFC0008952797E0E0E883E983EA83EB83EC839E
:101B0C0020E030E040E050E0EFEFFFEFDE2EEF2E74
:101B1C00E4E6F0E0FA93EA930E94710EA0E0B0E0E4
:101B2C00E1E10E94A110A2E0B0E0E3EB0E94A11061
:101B3C00A895AD81BE81EEEFFFEF0E9457100E2EDF
:101B4C00AB81BC81EEEFFFE30E945110E02921F143
:101B5C00AF3EEDE0BE0729F4EB81FC813196EB83BF
:101B6C00FC83EB81FC81FA93EA930E944D03ED8395
:101B7C00FE830E943810EA83ED81E983EA81EA93BF
:101B8C000E945303E981EA930E945303EB81FC8189
:101B9C003296EB83FC83CDCFED2DFE2DA6E4B1E088
:101BAC000E94991043DBEDB5EEB578945F985E9A80
:101BBC00A6E4B1E00E9481100F01A8E4B1E00E94FC
:101BCC008110E015F10579F5A5E2B1E00E948510D0
:101BDC00EA93D8DEC7DDE0917902F0917A02FA93AC
:101BEC00EA93E2E0EA930E942C0496DBE091C100B8
:101BFC00E07CE061E093C1005B9AA895F49B02C085
:101C0C000E946704EFECE0937A0086DB2A9AE0915D
:101C1C007902F0917A02FA93EA93E2E0EA930E9455
:101C2C002C042A98EACFE091C100E07CE061E093BB
:101C3C00C1005B9AA895F49B02C00E946704EFE078
:101C4C00E0937A00E0E0E0937502E0937602E09393
:101C5C007702E093780260DB2A9AE0917902F091A6
:101C6C007A02FA93EA93E2E0EA930E942C042A980F
:101C7C00E1CFD14FFFFFFFFFFFFFFFFFFFFFFFFF94
:101C8C00FFFFFFFFFFFFFFFFFFFFFFFFFFFFFFFF58
:101C9C00FFFFFFFFFFFFFFFFFFFFFFFFFFFFFFFF48
:101CAC00FFFFFFFFFFFFFFFFFFFFFFFFFFFFFFFF38
:101CBC00FFFFFFFFFFFFFFFFFFFFFFFFFFFFFFFF28
:101CCC00FFFFFFFFFFFFFFFFFFFFFFFFFFFFFFFF18
:101CDC00FFFF2796FFCFE991F991309631F08AE911
:101CEC008A95F1F7A8953197D1F70895552342F4C9
:101CFC00503811F4E0FF04C03196691F791F6BF066
:101D0C0050E8572711F45F93CAC05F3F31F0660F5C
:101D1C00000C57956795752F08955F9300200AF076
:101D2C00CAC0C3C050E8192E1522880F991F9527D9
:101D3C00550F879550E8072E0522660F771F7527DC
:101D4C00550F67950895689401C0E8945F93F2DF8E
:101D5C00703818F07F3F08F4A2C056E1571BAAF464
:101D6C00519558300EF4593030F0EFEFFFEF6FEF24
:101D7C007FE777F91AC077275523B9F0EE0FFF1FCD
:101D8C00661F771F5A95D1F710C07727583028F067
:101D9C00EF2FF62F672F5850F9CF552331F076954A
:101DAC006795F795E7955A95D1F700200AF441D13C
:101DBC005F910895689401C0E8943097604070403A
:101DCC00B1F0002426F0772312F4009432D1172EB0
:101DDC007EE1112032F07A95EE0FFF1F661F111C69
:101DEC00F9CFEF2FF62F612D5F938ADF5F91089566
:101DFC004F93AF01FD01DA01AB01BC01CA01402DCB
:101E0C00012C142E4F910895EA0FFB1F681F0895A3
:101E1C00E095F0956095EF5FFF4F6F4F08955F93DE
:101E2C0081DF903849F150E81526703821F1572F91
:101E3C00591B2BF112F4DCDFFACF583118F0AA271A
:101E4C00BB278827583028F0AB2FB82F882758503D
:101E5C00F9CF552329F08695B795A7955A95D9F7BB
:101E6C00502D512572F0D0DF38F46795F795E79532
:101E7C00739513F420C0BCDF43DF5F910895D8F74E
:101E8C00FBCFEA1BFB0B680B51F010F40094C0DF86
:101E9C00662392F3EE0FFF1F661F7A95CBF7EE27A2
:101EAC00FF27662777275F910895EFEFFFEF6FE726
:101EBC007FEF5F910895EFEFFFEF6FE77FE75F91A3
:101ECC0008955F932FDF703851F3903841F301245C
:101EDC000894791F23F41CF300203AF3ECCF0F92F3
:101EEC001F932F933F934F93112722279927689F76
:101EFC00A0018F9F302D410D591F6B9F300D411D3F
:101F0C00591F8E9F27D0BF9F25D06A9F23D0BE9F7D
:101F1C001DD0AF9F1BD0AE9F110D291F391F491F1C
:101F2C00591FE32FF42F652F522F4F913F912F9173
:101F3C001F910F9066232AF0550FEE1FFF1F661F8F
:101F4C0002C073954BF2D2DE5F910895100D211DE6
:101F5C00391F02C0200D311D491F591F08955F9371
:101F6C00E1DE703821F411200AF49FCFA4CF903811
:101F7C0009F495CF01240894970B1BF4D4F300209B
:101F8C00F3CF792F1F932F933F934F931124112746
:101F9C00222733274427552790E2AE17BF07860721
:101FAC00410730F0AE1BBF0B860B410B089401C0F0
:101FBC008894551F221F331F111CAA1FBB1F881F7B
:101FCC00441F9A9551F7F901612D4F913F912F9133
:101FDC001F91662332F0550FEE1FFF1F661F7A9577
:101FEC0043F284DE5F91089599239AF0772342F0AF
:101FFC00971748F029F4AE17BF07860720F031F089
:10200C0098948894089598940894089518948894B2
:10201C0008957723C2F7971798F3A9F7EA17FB07E8
:10202C00680788F399F3ECCFEA0FFB1F681F791F41
:10203C000895F09560957095E195FF4F6F4F7F4F28
:10204C000895EE230E2EFD01BC0131F075956795B8
:10205C00F795E7950A94D1F70895EE0FFF1FEE0F51
:10206C00FF1F0895EF2FFF27E7FDFFEF08956F2F58
:10207C00660F660B762F0895EA17E1E009F0EE275C
:10208C000895AE17E1E008F0EE270895EA17E1E0B5
:10209C0008F0EE270895EA17FB07E1E00CF4EE27B1
:1020AC000895EA17FB07E1E008F4EE270895ED9197
:1020BC00FD916D917C9113970895ED93FD936D9324
:1020CC007C930895A591B4910895689401C0E89407
:1020DC0001D073DE182E862F612D192E972F712D9E
:1020EC001B2EBF2FF12D1A2EAE2FE12D0895129617
:1020FC0002D0BF011297119602D0FE2F1197F999B9
:10210C00FECFFF93FFB7F894A1BDB2BDF89AE0B52E
:10211C00FFBFFF91089507D012960F01FB0103D06A
:10212C00F0011297089507D01196EF93EF2F03D07B
:10213C00EF9111970895F99B02C0A895FCCF9FB71A
:10214C00F894A1BDB2BDF89A80B5E81719F0E0BDBE
:10215C00FA9AF99A9FBF089500240A160B060806EE
:10216C00090608955A934A933A932A931A930A9319
:10217C0008955D814C813B812A81198108810895E4
:00000001FF
