:020000000C945E
:1000020024030C94E1030C9400000C9400000C9463
:1000120000000C9400000C9400000C9400000C945E
:1000220000000C9400000C9400000C9400000C944E
:1000320000000C9400000C9400000C9400000C943E
:1000420086030C9424040C948F030C9400000C94EB
:10005200BD030C94FD030C9400000C9400000C945E
:1000620000000C94000000010203040506070809C1
:100072000C0D1115191A203844474A4E525657583A
:100082005C60616265696D71757B8687888926010E
:100092000203040506070809090900000000000020
:1000A200000000000000000A0B0B0B0B0000000018
:1000B200000000000000000000000000000000003E
:1000C2000C0C0C0C0D0D0D0D0000000000000000CA
:1000D2000000000000000000000C0C0C0C0A0D0DCA
:1000E2000D0D0000000000000000000000000000F4
:1000F20000000E00000000000000000000000000F0
:1001020000000000000000000000002601020304BD
:1001120005060708090909000000000000000000A8
:10012200000000001010101010101010101010100D
:10013200101010101010101010101010000F0F0FD0
:100142000F0F0F11111111111111111111111112A2
:100152001212000000001313130A141414141515BC
:1001620015151616161600000000000000000017F4
:10017200180A191919191A1A1A1A272727271B1CBC
:1001820000000000000000001D1D1D000000000016
:10019200000000000000000000000000000000005D
:1001A200001010101010101010101010101010105D
:1001B200101010101010101010000F0F0F0F0F0F53
:1001C200111111111111111111111111121212002B
:1001D2000000001D1D1D00000000000000000000C6
:1001E2000000000000000000000000000A191919B8
:1001F200191A1A1A1A00000000000000000000007C
:1002020000000000000000000000000000000000EC
:1002120000000000000000000000000000000000DC
:1002220000000000000000000000000000000000CC
:1002320000000000000000000000000000000000BC
:1002420000000000000000000000000000000000AC
:100252001E0000000000000000000000000000007E
:10026200000000000000000000000000000000008C
:10027200000000000000000000000000000000007C
:10028200000000000000000000000000000000006C
:10029200000000000000000000000000000000005C
:1002A200000000000000000000000000000000004C
:1002B200000000000A000000000000000000000032
:1002C200000000000000000000000000001F1F1FCF
:1002D200000000000000000000000000000000001C
:1002E20000000000000020202000000000000000AC
:1002F20000000000000000000000000000000021DB
:1003020000000000000000000000000000000000EB
:1003120000000000000000002222222222222727C1
:100322002727272727272323232323232323232383
:100332000013131300000000000000000000000082
:1003420000000000000000000000030000000000A8
:10035200000000000000000000000000000000009B
:100362000000002400000000000000000000000067
:100372000000000000000000000000002500000056
:10038200000000000000000000000000000000006B
:1003920000000000000000010203060B0C0D0E0F0E
:1003A200101112132324252628292A2B2C2D2E2F17
:1003B20030313B6C6D0000000001000000000000C5
:1003C200010101010101010101010101010101001C
:1003D2000101010100010101000000000000000014
:1003E200000000000000000000000000000000000B
:1003F200000101000000C0C1C1810140C30103C06E
:100402000280C241C60106C00780C7410500C5C1BE
:10041200C4810440CC010CC00D80CD410F00CFC17E
:10042200CE810E400A00CAC1CB810B40C90109C06E
:100432000880C841D80118C01980D9411B00DBC10E
:10044200DA811A401E00DEC1DF811F40DD011DC0BE
:100452001C80DC411400D4C1D5811540D70117C0DE
:100462001680D641D20112C01380D3411100D1C1EE
:10047200D0811040F00130C03180F1413300F3C12E
:10048200F28132403600F6C1F7813740F50135C0BE
:100492003480F4413C00FCC1FD813D40FF013FC07E
:1004A2003E80FE41FA013AC03B80FB413900F9C16E
:1004B200F88138402800E8C1E9812940EB012BC0CE
:1004C2002A80EA41EE012EC02F80EF412D00EDC1BE
:1004D200EC812C40E40124C02580E5412700E7C1DE
:1004E200E68126402200E2C1E3812340E10121C0EE
:1004F2002080E041A00160C06180A1416300A3C1EE
:10050200A28162406600A6C1A7816740A50165C0BD
:100512006480A4416C00ACC1AD816D40AF016FC07D
:100522006E80AE41AA016AC06B80AB416900A9C16D
:10053200A88168407800B8C1B9817940BB017BC00D
:100542007A80BA41BE017EC07F80BF417D00BDC1BD
:10055200BC817C40B40174C07580B5417700B7C1DD
:10056200B68176407200B2C1B3817340B10171C0ED
:100572007080B041500090C191815140930153C0AD
:1005820052809241960156C057809741550095C1BD
:10059200948154409C015CC05D809D415F009FC17D
:1005A2009E815E405A009AC19B815B40990159C06D
:1005B20058809841880148C0498089414B008BC1CD
:1005C2008A814A404E008EC18F814F408D014DC0BD
:1005D2004C808C41440084C185814540870147C0DD
:1005E20046808641820142C043808341410081C1ED
:1005F2008081404001000000000000000000010076
:10060200000000000000803F02000100050000041D
:100612000000000000000000000001002D4E414ECD
:1006220000494E4600000C000300F6050400CE040B
:1006320002060100E1010C060100E3010E060100C1
:1006420042021C060000F894EE27EFBBF1E0F5BF72
:10065200E5BFF8E1A895A4B7A77FA4BFF093600017
:10066200E09360008DE0A2E0BB27ED938A95E9F765
:1006720080E094E0A0E0B1E0ED930197E9F7E8E2D1
:10068200F6E085919591009761F0A591B59105905D
:100692001590BF01F00105900D920197E1F7FB0162
:1006A200F0CFE0E0EEBBEDECEDBFE4E0EEBFC4E680
:1006B200D1E00C947C0DBA93AA930E94710EEA8148
:1006C200FB81D8010E94760E8F010E9413131981BB
:1006D200088124960895AA93EC2DF070DF01E88139
:1006E200F0E0AE27BF27EFEFF0E0EA23FB23A6EF0F
:1006F200B3E00E94760E0E941713FB2DE0E0EA277A
:10070200FB27BE2ECF2E21960895EA93E1E0EDBBA2
:10071200ECBBE0E0E0936900E9911895AA93EA93B3
:10072200FA93EFB7EA931A930A93F8941091C000E0
:100732000091C600E12FEC71D9F4E091D601F0E00E
:10074200E459FE4F0083A091D601AF5FA093D6017A
:10075200A03419F4E0E0E093D601A091D801AF5F94
:10076200A093D801A03421F4E0E0E093D801F09AFC
:100772007894099119911EC0AA93EA93FA93EFB75C
:10078200EA93F894E0914102E03099F0E150E0936D
:100792004102E09140020E947B0EE093C600A091CC
:1007A2004002AF5FA0934002A03419F4E0E0E0936E
:1007B20040027894E991EFBFF991E991A9911895D6
:1007C200AA93EA93EFB7EA93A0916900A33041F4A8
:1007D2005B9A0E94800EE0E0E0936900F49807C003
:1007E200E3E0E0936900E0ECE093C100F49AE99160
:1007F200EFBFE991A99118956A937A938A93EA9344
:10080200FA93EFB7EA9382E08A95F1F7E0917800E4
:10081200F091790066277727E093D901F093DA0106
:100822006093DB017093DC01F19AE0E2E0937C00DB
:10083200EFE4E0937A00E991EFBFF991E9918991B0
:10084200799169911895EA93EFB7EA93E091E10102
:10085200E03031F4EFEFEEBDE1E0E093E10101C001
:100862002A98EFECE0937A00E991EFBFE9911895AD
:10087200AA9382E08A95F1F72A98A881A23070F4AF
:10088200E881EEBDE03019F4E0E0FCE302C0E0E014
:10089200F0E6E983FA83EDB5E038E8F3A881A33006
:1008A20019F4E0E0E983EA83A881A23049F40E94C6
:1008B200870EE0E10E94CD12EEBDEDB5E038E8F31F
:1008C200EA81F070EEBD2A98EDB5E038E8F3E981EF
:1008D200EEBDEDB5E038E8F3239608951A930A9336
:1008E2001CD28F01F59B14C0002E012A49F40E94EC
:1008F200900EF098A091E601EAD00E2B1F2B05C0B6
:100902005B9AF0980E94900EF498D8010BD006C022
:10091200F0980E94900E0E94800E5B9A4BD509912E
:1009220019910895BA93AA930E946E1310E000E001
:1009320030E0A091C000A032E0F3A3E0B0E00E945A
:100942003413E093E301A9E1B0E00E9419115B982E
:10095200E091C100E07CE860E093C100AFE0B0E06C
:100962000E94191110E0E091E3011E1758F40E9451
:10097200960EAFEFA083E0914102EF5FE093410258
:100982001F5FF1CFF69B04C00E94960EA1E003C048
:100992000E94960EA6E0A083E12F0E947B0E0E9489
:1009A2009B0E0E949E0E0E949B0E0E949E0E3E2750
:1009B2001F5FA091E601A33219F4E9E0E093E5019B
:1009C200EC81FD81309739F50E94B20EE091E5018C
:1009D200EE5F0E94B70E0E949B0EA091D3010E946F
:1009E200BA0E0E949B0EA0E00E94BA0E3E271F5F25
:1009F20000E0E091E5010E1768F40E94B20EE02FCC
:100A0200F0E0E951FE4FE0810E94B70E3E271F5FE2
:100A12000F5FEFCF3FC00E94B20EE091D101EE5FB7
:100A22000E94B70E3E271F5F0E94B20EEC81FD812D
:100A32000E94DE120E94B70E0E949B0EAC810E94A1
:100A4200BA0E3E271F5F012F102FA091D101BB27A5
:100A52000E94BD0EA12FB0E0AE17BF07DCF40E94CA
:100A6200960EBF01A091E401BB27E091E301F0E003
:100A7200AE1BBF0BEE27A10FBE1FE2E0F0E00E940B
:100A8200C20EE459FE4FE081DB010E94B70E3E2701
:100A92001F5FDBCF0E94960E3083E1E0E0934002BD
:100AA20010934102E0910002E093C600E0914102FE
:100AB200E030E1F7AFE0B0E00E9419115B9AF498E0
:100AC200E0E0E093D8010E94751326960895AA9358
:100AD20028970E94C70EE1E0EF830E94CC0E40E00F
:100AE20010E01F3168F4E12FF0E0E856FC4FA491CA
:100AF200EE85EA1719F4E0E0ED871A871F5FF1CF60
:100B0200ED85E03009F0B7C0A7EBB3E0EA85F0E08D
:100B1200EA0FFB1F4491A6EDB3E0EA85F0E0EA0F8D
:100B2200FB1F54914030B9F000E00E94D40E64F4EF
:100B3200A02FB0E0A951BE4FE02FF0E0E455FE4FE8
:100B4200E081EC930F5FF1CFEA85E093D201AA85B1
:100B520098D000E090C00E94DD0E04900C8600E068
:100B6200083108F085C00E94DD0EE491AC85EA17D9
:100B720009F46FC0AB85E02FEA1B3E2F301708F057
:100B820066C0AC85EBE00E94F2120E2EEDE00E94F0
:100B9200F712E029D9F1AA85AA3181F5A32FE6E05F
:100BA2000E94F2120E2EEDE00E94F712E02939F0B7
:100BB2000E94E50E0E94EA0E0E94FA0E1DC03A3013
:100BC20058F40E94030F0E94080F0E94120F0F0197
:100BD200E32FF0E036970AC00E94030F0E94170F1E
:100BE2000E94120F0F01E32FF0E03A97DE011696F2
:100BF200AE0FBF1FEC91D001EC9307C00E94E50E2F
:100C02000E94EA0E0E94FA0EEC931FC0F894EC8543
:100C1200F0E03B97A5ECB1E00E94210F0E9408137F
:100C22000E94120FBF01A32FBB27EB85F0E0AE0F8E
:100C3200BF1FE02FF0E00E94C20EDE011696AE0F3B
:100C4200BF1FEC91DB01EC9378943F5F97CFE0E01C
:100C5200EB870E94DD0E04900C86EB85EF5FEB873D
:100C62000E94DD0EE491E03009F408E10F5F78CFD5
:100C72003093E50130E0ED85F0E00E9473132F968A
:100C82000895AA930E94CC0E0E94260F249100E0A0
:100C92000E94D40EF4F50E94260FDF010E94BD0EC1
:100CA200E491E21709F1E02FE51B3E2F3017D8F44B
:100CB200E22FF0E0E859FF4F64917727A32FBB277B
:100CC200EE27A50FBE1FE02FF0E00E94C20EE60F36
:100CD200F71FE050F040DF010E94E50EE0810E9424
:100CE20050133F5FE3CF50E00E94260FDF010E94C6
:100CF200BD0E24915F5F0E94260FDF010E94BD0E90
:100D0200E491E03021F4E091D101EF5F0E2F0F5F0B
:100D1200BFCF0E947313279608952297E0E0E883DD
:100D2200E9830E94CC0EE0E0E093E201F59AE02F25
:100D32000E942D0FAF3F41F4093020F0E0E9E0932B
:100D4200E20102C10F5FF3CF0093E401102FE02F05
:100D52000E942D0FA23019F0E2E0E093E2010E941E
:100D6200320F0E94380FE07319F0E0E9E093E201DC
:100D72000E94320FEF700E2EA9E1B0E00E943413F0
:100D8200E01511F4F59A01C0F5980E94320F0E9405
:100D9200380FE093E601A091E601A332C9F420E006
:100DA2002430B0F4E22FF0E0E85AFF4F0F01E12FB8
:100DB200F0E033960E94410FE22FF0E0E45AFF4F39
:100DC2000F01E12FF0E037960E94410F2F5FE8CF2D
:100DD200A091E601A63219F4A0E00E949B0CA0911A
:100DE200E601AA3239F5E12FF0E0E259FE4FA08187
:100DF200E5E40E94E8120E2EE12FF0E0E159FE4FE9
:100E0200A081E2E50E944D0FE059FE4FA081E1E48E
:100E12000E944D0FEF58FE4FA081E3E50E944D0F57
:100E2200EE58FE4FA081E5E40E94E812E02111F0A5
:100E32000E94F20CA091E601AB32A9F4F8940E9450
:100E4200530F0E945A0F0E94640F0E945A0F0E9471
:100E52006A0F0E94700F5090D9016090DA010E94CF
:100E6200790F7894F5D4A091E601AD3259F420E0DF
:100E7200243040F4E22FF0E0E759FF4F0E94870F41
:100E82002F5FF6CFA091E601AE3259F420E0243074
:100E920040F4E22FF0E0E359FF4F0E94870F2F5FEB
:100EA200F6CFA091E601AF36A9F4F8940E948C0F18
:100EB2000E945A0F0E94930F0E945A0F0E94990F8C
:100EC2000E94700F7090D9018090DA010E94790F10
:100ED2007894BED40E94320F0E94380FE093D10161
:100EE2000E94320F0E949F0F1F5F512F052F152F57
:100EF200A52FBB27E091D101F0E0EA0FFB1FA12F44
:100F0200B0E0AE17BF077CF40F5FA32FB0E0A4558B
:100F1200BE4F0E94320FEC930E94320F0E949F0F2D
:100F22003F5F1F5FE5CF101719F0E0E9E093E201A0
:100F3200E12F0E942D0FEE81FF81B0E0EA17FB073F
:100F420019F0E8E8E093E201E091E201F0E00E94AA
:100F5200731328960895AA93E881F0E0309739F444
:100F62000E94A70FA7E4B1E00E9450131FC0E13016
:100F7200A0E0FA0739F40E94AC0FA8E4B1E00E94A5
:100F8200501314C0E230A0E0FA0739F40E94B10F06
:100F9200A9E4B1E00E94501309C0E330A0E0FA07CF
:100FA20029F4A7E4B1E0EFEF0E94501309C10E94B7
:100FB200AC0F0E2E0E94A70FE015A1F00E94B10FF8
:100FC2000E2E0E94AC0FE01511F4E1E008950E948C
:100FD200B10F0E2E0E94A70FE01511F4E2E0089562
:100FE200E3E0089527C1AA930E94B60F0E94640FFE
:100FF2000E94C30F51F40E94B60F0E946A0F0E9412
:10100200C30F11F0E1E0DDC015C00E94B60F0E94CF
:101012006A0F0E94C30F11F4E2E0D3C0E8810E947C
:10102200640F0E94CA0F0E946A0F0E94C30F11F43C
:10103200E3E0C7C00E94D10F0E94930F0E94C30F2A
:1010420051F40E94D10F0E94990F0E94C30F11F018
:10105200E4E0B7C015C00E94D10F0E94990F0E9410
:10106200C30F11F4E5E0ADC0E8810E94930F0E9426
:10107200CA0F0E94990F0E94C30F11F4E6E0A1C0AB
:10108200E8810E94080F7F936F93FF93EF930E9472
:10109200D80F0E942C13AF91BF918F919F910E9404
:1010A2006713A9F4E8810E94080F7F936F93FF935F
:1010B200EF930E94DD0F0E942C13AF91BF918F918D
:1010C2009F910E94671311F0E7E07BC029C0E8817D
:1010D2000E94080F7F936F93FF93EF930E94DD0F9F
:1010E2000E942C13AF91BF918F919F910E94671321
:1010F20011F4E8E066C00E94D80F0E942C137F937F
:101102006F93FF93EF930E94DD0F0E942C13AF9118
:10111200BF918F919F910E94671311F4E9E051C032
:10112200E8810E94170F7F936F93FF93EF930E94C2
:10113200E20F0E942C13AF91BF918F919F910E9459
:101142006713A9F4E8810E94170F7F936F93FF93AF
:10115200EF930E94E70F0E942C13AF91BF918F91E2
:101162009F910E94671311F0EAE02BC029C0E88129
:101172000E94170F7F936F93FF93EF930E94E70FE5
:101182000E942C13AF91BF918F919F910E94671380
:1011920011F4EBE016C00E94E20F0E942C137F9321
:1011A2006F93FF93EF930E94E70F0E942C13AF916E
:1011B200BF918F919F910E94671311F4ECE001C0DF
:1011C200E0E021960895A2E0B0E00E943413E33BF0
:1011D20029F0A2E0B0E0E3EB0E945013A6E0B0E0F9
:1011E2000E943413E13029F0A6E0B0E0E1E00E9471
:1011F2005013ABE0B0E00E943413EC3B29F0ABE0BB
:10120200B0E0ECEB0E945013AAE0B0E00E9434136D
:10121200EF3B29F0AAE0B0E0EFEB0E945013A9E106
:10122200B0E00E943413E03128F0A9E1B0E0E2E03E
:101232000E945013E0E00895AA93E881F0E030970D
:1012420009F4B5C0E130A0E0FA0749F4E981ACE263
:10125200B1E0F0E00E94760E0E94EC0FA8C0E230EE
:10126200A0E0FA0749F4E981A4E2B1E0F0E00E94CB
:10127200760E0E94EC0F9BC0E330A0E0FA0769F4FF
:10128200E981A4E1B1E0F0E00E94760E0F01E9816C
:101292000E94640F0E94FB0F8AC0E430A0E0FA07AC
:1012A20049F4E981ACE3B1E0F0E00E94760E0E94DD
:1012B20003107DC0E530A0E0FA0749F4E981A4E318
:1012C200B1E0F0E00E94760E0E94031070C0E6309A
:1012D200A0E0FA0769F4E981ACE1B1E0F0E00E9434
:1012E200760E0F01E9810E94930F0E94FB0F5FC0EF
:1012F200E730A0E0FA0749F4E981AAE7B1E00E94E9
:101302000B10D0010E94401352C0E830A0E0FA074F
:1013120049F4E981AAE6B1E00E940B10D0010E94D3
:10132200401345C0E930A0E0FA0781F4E981AAE45C
:10133200B1E00E941310AAE6B1E0F0E00E94210F92
:101342000E942C13D0010E94401331C0EA30A0E069
:10135200FA0759F4E981AAE9B1E00E9413100E9448
:10136200170FD0010E94401322C0EB30A0E0FA0711
:1013720059F4E981AAE8B1E00E9413100E94170F04
:10138200D0010E94401313C0EC30A0E0FA0779F4B8
:10139200E981AAE5B1E00E941310AAE8B1E0F0E009
:1013A2000E94210F0E942C13D0010E944013E0E002
:1013B200229608951A9310E010E0103460F4E12FA1
:1013C200F0E0E459FE4FA0E0A0830E94960EA0E058
:1013D200A0831F5FF2CF10E0193168F4E12FF0E033
:1013E200E455FE4FA0E0A083E12FF0E0E951FE4F6B
:1013F200A0831F5FF1CF19910895A895E8E3E093C8
:101402006000EEE0E0936000E0E0E5B9ECE2E4B910
:10141200E0E0E8B9E7B9539A5B9A569A579A5E9810
:101422005F98E0936E00E4BDE5BDE6BDE093C000C9
:10143200E0ECE093C100E6E0E093C200E0E0E0937C
:10144200C500E7E1E093C400E0E0E0938000E093B0
:101452008100E0938500E0938400E0938700E093AD
:101462008600E0938900E0938800E0938B00E0938C
:101472008A00E093B600E093B000E093B100E093FD
:10148200B200E093B300E093B400E3E0E0936900BC
:10149200E1E0EDBBECBBE0E0E0936800E0936E00BE
:1014A200E0936F00E0937000E0E8E0BFE0E0E093DB
:1014B2007B00EFE3E0937E00E0E2E0937C00EFEC60
:1014C200E0937A00E0917B00E03029F4E0E0E03044
:1014D20011F4E0E001C0E1E0E0937B00E3E5ECBD64
:1014E200E0E0EDBD08956C970E94C70EE0E0EF8347
:1014F2001A930A9300E010E0143078F40E941B1053
:10150200E85AFF4F0E94251031F40E942C10EE87FA
:10151200FF87688B798B1F5FEFCF10E0143078F470
:101522000E941B10E45AFF4F0E94251031F40E94C2
:101532002C10EA8BFB8B6C8B7D8B1F5FEFCF10E047
:10154200143078F40E941B10E759FF4F0E942510B7
:1015520031F40E942C10EA8FFB8F6C8F7D8F1F5FFE
:10156200EFCF10E0143078F40E941B10E359FF4FC4
:101572000E94251031F40E942C10EE8BFF8B688F95
:10158200798F1F5FEFCFA091D901B091DA018091DD
:10159200DB019091DC010E946113BCF5E091D9015D
:1015A200F091DA016091DB017091DC010E948811F7
:1015B200DF01CB010E9431100E945B12A0916801F1
:1015C200B091690180916A0190916B010E94BB11F7
:1015D2000E945111EE83FF8368877987AE81BF81B4
:1015E20088859985A13CEFEFBE07E0E08E07E0E039
:1015F2009E0744F0E0ECFFEF60E070E0EE83FF83D3
:1016020068877987A985AA232AF4E0E0EE83EF832D
:10161200E887E9870E943A100E943F10DF01CB0160
:10162200E0E0F0E060E871E40E945B12AE81BF810D
:10163200888599850E941C130E940D120E945111E7
:101642007F936F93FF93EF930E943A10E8E0F0E2EA
:1016520060E879E30E945B120E94511166277727A6
:10166200AF91BF918F919F910E94E3120E94C0128D
:10167200E093DD01F093DE016093DF017093E001FE
:10168200EA8DFB8D6C8D7D8D0E94870E0E941C134E
:101692000E94A01211F008F00AC0EA8DFB8D6C8D39
:1016A2007D8DADEDB1E00E9451110E940E13E091CB
:1016B200DD01F091DE016091DF017091E0010E9495
:1016C2008811A8E0B0E280E899E30E940D12E0934D
:1016D200C901F093CA016093CB017093CC01E091F0
:1016E200C901F091CA016091CB017091CC010E94B5
:1016F2003A100E94BB11A0E0B0E088EC92E40E9494
:101702000D127F936F93FF93EF930E943A100E9402
:101712003F10AF91BF918F919F910E945B12E09316
:10172200CD01F093CE016093CF017093D001AA89CD
:10173200BB898C899D89EE85FF85688979890E949C
:10174200BB11EA87FB876C877D870E944610A03019
:10175200E0E0BE07E0E28E07E1E49E0741F4ACE080
:10176200B0E0EAE00E9450135F985E98AA240E94BB
:101772004610A030E0E0BE07E0EA8E07E1E49E07F3
:1017820049F4ACE0B0E0E4E10E9450135F985E9A45
:10179200E1E0AE2E0E944610A030E0E0BE07E0EF8E
:1017A2008E07E1E49E0749F4ACE0B0E0EEE10E946E
:1017B20050135F9A5E98E2E0AE2E0E944610A0306F
:1017C200E0E0BE07E8E48E07E2E49E0749F4ACE0FD
:1017D200B0E0E2E30E9450135F9A5E9AE3E0AE2E1D
:1017E2000E94030FAE16B1F0EA2D0E94170F0E945D
:1017F2004B100E94080F0E945510A4E4B1E00E9411
:101802005013EA2DA5E4B1E00E945013A6E4B1E022
:101812000E9450130E944610E0E0F0E068EC72E48F
:101822000E945B12A091CD01B091CE018091CF01B7
:101832009091D0010E940D12E093C501F093C60170
:101842006093C7017093C801198108816E9608954B
:101852000E946C1307EF12EF29EC3CE00E948C0F00
:101862000E945F100F010E94530F0E945F10D0016F
:10187200AE1BBF0BAD01FA010E946410DF01CB0168
:10188200E0E0F7EF62E777E40E945B120E945510F6
:10189200AAE4B1E00E946910AAE6B1E00E946910D0
:1018A200AAE7B1E0F0E00E94D912AE0FBF1F0E947A
:1018B20031100E9440130E94530F0E945F10AF012B
:1018C2000E9464107F936F93FF93EF93F901A091AD
:1018D2006401B091650180916601909167010E9457
:1018E20064100E940D12AF91BF918F919F910E943F
:1018F2001F130E94BB110E944B10AAE5B1E00E9487
:101902007310AAE8B1E00E947310AAE9B1E0F0E016
:101912000E94D912AE0FBF1FE0916801F0916901D8
:1019220060916A0170916B010E9440130E947313CF
:1019320026960895AA930E94710E00E010E00B38DB
:10194200E0E01E07C4F4E2E6F0E0E017F10719F464
:1019520004E610E00DC0F801E050F0400F01AAE8E3
:10196200B0E0A00FB11F0E943413D0010E945013A7
:101972000F5F1F4FE4CF00E010E00430E0E01E07ED
:1019820044F5F801AAE5B1E00E94210F0E948410FB
:10199200AAE4B1E00E94210F0E948C100E949410D0
:1019A2000E948410AAE9B1E00E94210F0E948410D3
:1019B200AAE6B1E00E94210F0E948C10AAE7B1E0D2
:1019C2000E94210F0E94D9100E9440130F5F1F4FE7
:1019D200D4CF0E94DE100E94F9100E94030FAE2E97
:1019E20086C0E1E0E5BFE2E0E5BFA0E0B0E0EEEEF8
:1019F2000E945013A2E0B0E0E3EA0E945013E0E03C
:101A0200FCE1E093D401F093D501E091D401F0918F
:101A1200D50109950895AA930E94710EAA81A13059
:101A220091F50E94030FA4E1B1E0F0E0EE0FFF1F79
:101A32000E945F105E2E6F2E0E94030FACE1B1E098
:101A4200F0E0EE0FFF1F0E945F107E2E8F2E0E948D
:101A5200030F0E94170FE0936801F09369016093EE
:101A62006A0170936B010E94030F0E94080FE093BA
:101A72006401F093650160936601709367010E94AF
:101A8200030FAE2E34C00E94F910E1E0AE2E00E04A
:101A920010E00430E0E01E0744F5F801AAE5B1E0E9
:101AA2000E94210F0E948410AAE4B1E00E94210F3B
:101AB2000E948C100E9494100E948410AAE9B1E046
:101AC2000E94210F0E948410AAE6B1E00E94210F19
:101AD2000E948C10AAE7B1E00E94210F0E94D91047
:101AE2000E9440130F5F1F4FD4CF0E94DE10198156
:101AF2000881239608952F978BE0A2E0B0E0E0E101
:101B0200F6E00E947A1320E030E040E050E00E94CC
:101B1200A70FE9830E94AC0FE883AA24EFEFFFEF3F
:101B2200BE2ECF2EA4E6B0E00E941911A0E0B0E0D4
:101B3200E1E10E945013A2E0B0E0E3EB0E945013F7
:101B4200A895AD85BE85EEEFFFEF0E9402130E2E23
:101B5200AB85BC85EEEFFFE30E94FC12E02901F1A8
:101B6200AF3EEDE0BE0729F4EB85FC853196EB87AD
:101B7200FC87AB85BC850E945C03ED87FE870E94D3
:101B8200DE12EE83ED85ED83AE810E946C03AD81A2
:101B92000E946C03EB85FC853296EB87FC87D1CFE4
:101BA200EB2DFC2DAAEAB1E00E94481326DCEDB52C
:101BB200EEB5789499245F985E9A05DBAAEAB1E0C3
:101BC2000E9430130F01ACEAB1E00E943013E0151D
:101BD200F105E1F5A895A981EFEF0E94ED120E2E15
:101BE200A881EFEF0E94ED12E02931F00E94D807A0
:101BF200EB83AB810E94AC070E94B10FAE2F0BDFCB
:101C020072DC26DE0E9407110E94800E5B9AA89564
:101C1200F49B02C00E946F04E2E3E91569F499247F
:101C2200E0E0EA83AA81A43030F40E941011EA8134
:101C3200EF5FEA83F7CF0CDE56DCEFECE0937A003D
:101C42002A9A0E9407112A989394E1CF0E94800E4B
:101C52005B9AA895F49B02C00E946F04E2E3E91527
:101C620069F49924E0E0EA83AA81A43030F40E9466
:101C72001011EA81EF5FEA83F7CFEADD34DCEFE0AF
:101C8200E0937A00E0E0E093D901E093DA01E09397
:101C9200DB01E093DC012A9A0E9407112A989394AF
:101CA200D8CFD14FFFFFFFFFFFFFFFFFFFFFFFFF77
:101CB200FFFFFFFFFFFFFFFFFFFFFFFFFFFFFFFF32
:101CC200FFFFFFFFFFFFFFFFFFFFFFFFFFFFFFFF22
:101CD200FFFFFFFFFFFFFFFFFFFFFFFF2F96FFCF7B
:101CE2001A930A9300E010E00895EE0FFF1FEA0F27
:101CF200FB1F0895F0E0E050FE4FE0810895E0916F
:101D0200C100E07CE061E093C1000895A091DD0193
:101D1200B091DE018091DF019091E0010895E0E051
:101D2200E093E201E093D6010895E12FF0E0E05064
:101D3200FE4F08953E271F5FF8CF0F01A091E401E7
:101D4200BB27E091E301F0E0AE1BBF0BE12FF0E017
:101D5200EA0FFB1FE459FE4FE081D001EC93E12F23
:101D6200C9CFA12FB0E0A050BE4F0895EC93E12F50
:101D7200C1CFA083E12FBECFE02FF0E0EA0FFB1F1F
:101D820008950E942513EA1BFB0B0895E0E0EC8303
:101D9200ED83EE8308950E946C1310E000E030E0C2
:101DA20020E050E00895E091D101F0E03196A02FBB
:101DB200B0E0AE17BF070895EA85A9E1EA9FF001F6
:101DC200E057FF4FDF01D8CFE32FF0E0E951FE4F9C
:101DD2000895CF01EC85F0E0E859FF4F6491772731
:101DE200A32FBB27EB85F0E0AE0FBF1FE02FF0E083
:101DF200C8CFE60FF71FE050F040DF010E94341316
:101E0200DC010895A4E4B1E00E9434130895AAE429
:101E1200B1E0F0E00E94D912AE0FBF1F0E942C1356
:101E22000895EE83FF8368877987CECFAAE5B1E074
:101E3200F0E00E94D912AE0FBF1F0E942C1308952A
:101E42000E94D912AE0FBF1F0895EE81A9E1EA9F49
:101E5200F001E057FF4F0895F0E0E459FE4FA081F2
:101E62000895E12FF0E0E459FE4FE0810895AE813C
:101E7200BF81F0E0EA27FB27EE83FF831F5FF1CFEC
:101E8200DF01E22FF0E0EA0FFB1FE459FE4FE08191
:101E9200D0010E94501308950E94E8120E22E12FF1
:101EA200F0E00895EA2DA4E1B1E0F0E0EE0FFF1FAB
:101EB2000895AE0FBF1FE091D901F091DA010E949F
:101EC2004813EA2D0895A4E2B1E0F0E0EE0FFF1FFF
:101ED2000895ACE2B1E0F0E0EE0FFF1F0895AE0FFF
:101EE200BF1FE091D901F091DA010E9448130895D1
:101EF200A7E4B1E0E1E00E945013A8E4B1E00E943F
:101F02005013A9E4B1E00E94501308950F01E12F8C
:101F1200F0E03296B5CFEA2DACE1B1E0F0E0EE0FA1
:101F2200FF1F0895A4E3B1E0F0E0EE0FFF1F089554
:101F3200ACE3B1E0F0E0EE0FFF1F0895AE81BF8188
:101F4200F0E0EA27FB27EE83FF830895A8E4B1E0DF
:101F52000E9434130895A9E4B1E00E943413089555
:101F6200A7E4B1E00E9434130895E881A4E1B1E04E
:101F7200F0E0EE0FFF1FAE0FBF1F0E9430130F01E4
:101F8200E8810895AE0FBF1F0E943013E015F105DE
:101F92000895AE0FBF1F0E9430130F01E88108950C
:101FA200E881ACE1B1E0F0E0EE0FFF1FF2CFE88193
:101FB200AAE6B1E0F0E044CFE881AAE7B1E0F0E0C0
:101FC2003FCFE881AAE8B1E0F0E03ACFE881AAE9A0
:101FD200B1E0F0E035CF0F01E981A4E1B1E0F0E03A
:101FE200EE0FFF1FAE0FBF1F0E943013D0010E94E1
:101FF20048130895AE0FBF1F0E943013D0010E94F4
:10200200481308950F01E981ACE1B1E0F0E0EE0F71
:10201200FF1FF0CFF0E00E94D912EA0FFB1F0F0161
:10202200E981F5CEF0E00E94D912EA0FFB1F0F0101
:10203200E9810895E12FF0E0DE011296EA0FFB1F1D
:102042000F01E12FF0E00895DF010E943413D00167
:10205200EC9313300895EA81FB816C817D810895B0
:10206200E0916401F09165016091660170916701F0
:102072000895AA8DBB8D8C8D9D8D0895EE89FF8963
:10208200688D798D0E94BB110895AA85BB858C85C8
:102092009D850895E0936801F093690160936A0158
:1020A20070936B01EA2D0895E0936401F09365014A
:1020B2006093660170936701EA2D0895AE0FBF1F0A
:1020C2000E9430130895662777270E948811089589
:1020D200F0E00E94D912AE0FBF1FC2DF0E94401370
:1020E200EA2D0895F0E00E94D912AE0FBF1FE091D1
:1020F2006801F091690160916A0170916B010E941F
:102102004013EA2D0895E0E0F0E060E070E00E9404
:102112004013F8010895E0E0F0E060E87FE30E94F8
:102122004013F8010895A4E1B1E0EE0FFF1FAE0FD6
:10213200BF1FE9ECFCE00E944813F801ACE1B1E0FA
:10214200EE0FFF1FAE0FBF1FE0ECFFEF0E94481320
:10215200F801A4E2B1E0EE0FFF1FAE0FBF1FE9ECE2
:10216200FCE00E944813F801ACE2B1E0EE0FFF1F61
:10217200AE0FBF1FE9ECFCE00E944813F801A4E394
:10218200B1E0EE0FFF1FAE0FBF1FE0ECFFEF0E94AA
:102192004813F801ACE3B1E0EE0FFF1FAE0FBF1F13
:1021A200E0ECFFEF0E944813F801AAE8B1E048CE44
:1021B200E0E0F0E060E87FE30895E0E0E0936801AA
:1021C200E0936901E0936A01E0936B01F1DFE09330
:1021D2006401F09365016093660170936701E9EC15
:1021E200FCE05E2E6F2EE0ECFFEF7E2E8F2E089528
:1021F200A4E4B1E0E1E00E945013A5E4B1E00E9442
:102202005013A6E4B1E00E9450130895E091DD015D
:10221200F091DE01FA93EA93A2E00C943904AA81C8
:102222000E94F407EB83EA81EA93AC810C941D09C6
:10223200109631F08AE98A95F1F7A8951197D1F7AE
:102242000895552342F4503811F4E0FF04C031964A
:10225200691F791F6BF050E8572711F45F93CAC0CA
:102262005F3F31F0660F000C57956795752F089503
:102272005F9300200AF0CAC0C3C050E8192E15228D
:10228200880F991F9527550F879550E8072E05222D
:10229200660F771F7527550F67950895689401C0DB
:1022A200E8945F93F2DF703818F07F3F08F4A2C021
:1022B20056E1571BAAF4519558300EF4593030F0BC
:1022C200EFEFFFEF6FEF7FE777F91AC0772755231C
:1022D200B9F0EE0FFF1F661F771F5A95D1F710C096
:1022E2007727583028F0EF2FF62F672F5850F9CF65
:1022F200552331F076956795F795E7955A95D1F77D
:1023020000200AF441D15F910895689401C0E894D5
:10231200309760407040B1F0002426F0772312F429
:10232200009432D1172E7EE1112032F07A95EE0F11
:10233200FF1F661F111CF9CFEF2FF62F612D5F9340
:102342008ADF5F9108954F93AF01FD01DA01AB017E
:10235200BC01CA01402D012C142E4F910895EA0FA1
:10236200FB1F681F0895E095F0956095EF5FFF4FA2
:102372006F4F08955F9381DF903849F150E8152639
:10238200703821F1572F591B2BF112F4DCDFFACFF1
:10239200583118F0AA27BB278827583028F0AB2FCE
:1023A200B82F88275850F9CF552329F08695B7952D
:1023B200A7955A95D9F7502D512572F0D0DF38F4F0
:1023C2006795F795E795739513F420C0BCDF43DF5B
:1023D2005F910895D8F7FBCFEA1BFB0B680B51F016
:1023E20010F40094C0DF662392F3EE0FFF1F661F06
:1023F2007A95CBF7EE27FF27662777275F91089517
:10240200EFEFFFEF6FE77FEF5F910895EFEFFFEFE1
:102412006FE77FE75F9108955F932FDF703851F385
:10242200903841F301240894791F23F41CF300200F
:102432003AF3ECCF0F921F932F933F934F931127B1
:1024420022279927689FA0018F9F302D410D591F88
:102452006B9F300D411D591F8E9F27D0BF9F25D0E6
:102462006A9F23D0BE9F1DD0AF9F1BD0AE9F110D80
:10247200291F391F491F591FE32FF42F652F522F90
:102482004F913F912F911F910F9066232AF0550F84
:10249200EE1FFF1F661F02C073954BF2D2DE5F91E3
:1024A2000895100D211D391F02C0200D311D491F35
:1024B200591F08955F93E1DE703821F411200AF468
:1024C2009FCFA4CF903809F495CF01240894970B9D
:1024D2001BF4D4F30020F3CF792F1F932F933F9354
:1024E2004F9311241127222733274427552790E29F
:1024F200AE17BF078607410730F0AE1BBF0B860B36
:10250200410B089401C08894551F221F331F111CD0
:10251200AA1FBB1F881F441F9A9551F7F901612D0D
:102522004F913F912F911F91662332F0550FEE1F6D
:10253200FF1F661F7A9543F284DE5F910895992307
:102542009AF0772342F0971748F029F4AE17BF07A5
:10255200860720F031F0989488940895989408940E
:1025620008951894889408957723C2F7971798F3DB
:10257200A9F7EA17FB07680788F399F3ECCFEA0F8C
:10258200FB1F681F791F0895F09560957095E1957E
:10259200FF4F6F4F7F4F0895EE230E2EFD01BC01BA
:1025A20031F075956795F795E7950A94D1F70895F7
:1025B200EE0FFF1FEE0FFF1F0895EF2FFF27E7FD1E
:1025C200FFEF08956F2F660F660B762F0895EA17B7
:1025D200E1E009F0EE270895EA17E1E009F4EE27B9
:1025E2000895AE17E1E008F0EE270895EA17E1E05A
:1025F20008F0EE270895EA17FB07E1E00CF4EE2756
:102602000895EA17FB07E1E008F4EE270895ED913B
:10261200FD916D917C9113970895ED93FD936D93C8
:102622007C9308950590F491E02D0895A591B491BD
:102632000895689401C0E89401D06ADE182E862FAE
:10264200612D192E972F712D1B2EBF2FF12D1A2EB2
:10265200AE2FE12D0895129602D0BF011297119666
:1026620002D0FE2F1197F999FECFFF93FFB7F8948E
:10267200A1BDB2BDF89AE0B5FFBFFF91089507D0A2
:1026820012960F01FB0103D0F0011297089507D0B3
:102692001196EF93EF2F03D0EF9111970895F99BC5
:1026A20002C0A895FCCF9FB7F894A1BDB2BDF89A1D
:1026B20080B5E81719F0E0BDFA9AF99A9FBF08951C
:1026C20000240A160B06080609060895EA17FB07F6
:1026D2006807790708955A934A933A932A931A936B
:1026E2000A9308955D814C813B812A811981088179
:1026F2000895AC0FBD1F05900D928A95E1F70895DC
:00000001FF
